{
  "_format": "hh-sol-artifact-1",
  "contractName": "PayrollFactory",
  "sourceName": "contracts/PayrollFactory.sol",
  "abi": [
    {
      "inputs": [
        {
          "internalType": "address",
          "name": "_implementation",
          "type": "address"
        }
      ],
      "stateMutability": "nonpayable",
      "type": "constructor"
    },
    {
      "inputs": [],
      "name": "ErrEmptySchedule",
      "type": "error"
    },
    {
      "inputs": [],
      "name": "ErrInitFailed",
      "type": "error"
    },
    {
      "inputs": [],
      "name": "ErrZeroAddress",
      "type": "error"
    },
    {
      "inputs": [],
      "name": "FailedDeployment",
      "type": "error"
    },
    {
      "inputs": [
        {
          "internalType": "uint256",
          "name": "balance",
          "type": "uint256"
        },
        {
          "internalType": "uint256",
          "name": "needed",
          "type": "uint256"
        }
      ],
      "name": "InsufficientBalance",
      "type": "error"
    },
    {
      "inputs": [
        {
          "internalType": "address",
          "name": "owner",
          "type": "address"
        }
      ],
      "name": "OwnableInvalidOwner",
      "type": "error"
    },
    {
      "inputs": [
        {
          "internalType": "address",
          "name": "account",
          "type": "address"
        }
      ],
      "name": "OwnableUnauthorizedAccount",
      "type": "error"
    },
    {
      "anonymous": false,
      "inputs": [
        {
          "indexed": true,
          "internalType": "address",
          "name": "previousOwner",
          "type": "address"
        },
        {
          "indexed": true,
          "internalType": "address",
          "name": "newOwner",
          "type": "address"
        }
      ],
      "name": "OwnershipTransferred",
      "type": "event"
    },
    {
      "anonymous": false,
      "inputs": [
        {
          "indexed": true,
          "internalType": "address",
          "name": "vault",
          "type": "address"
        },
        {
          "indexed": true,
          "internalType": "address",
          "name": "employer",
          "type": "address"
        },
        {
          "indexed": true,
          "internalType": "address",
          "name": "employee",
          "type": "address"
        },
        {
          "indexed": false,
          "internalType": "address",
          "name": "usdt",
          "type": "address"
        },
        {
          "indexed": false,
          "internalType": "uint256",
          "name": "periodAmount",
          "type": "uint256"
        },
        {
          "indexed": false,
          "internalType": "uint32",
          "name": "totalPeriods",
          "type": "uint32"
        },
        {
          "indexed": false,
          "internalType": "bytes32",
          "name": "scheduleHash",
          "type": "bytes32"
        },
        {
          "indexed": false,
          "internalType": "bytes32",
          "name": "payrollRef",
          "type": "bytes32"
        },
        {
          "indexed": false,
          "internalType": "bool",
          "name": "deterministic",
          "type": "bool"
        },
        {
          "indexed": false,
          "internalType": "bytes32",
          "name": "salt",
          "type": "bytes32"
        }
      ],
      "name": "VaultCreated",
      "type": "event"
    },
    {
      "inputs": [
        {
          "internalType": "uint256",
          "name": "",
          "type": "uint256"
        }
      ],
      "name": "allVaults",
      "outputs": [
        {
          "internalType": "address",
          "name": "",
          "type": "address"
        }
      ],
      "stateMutability": "view",
      "type": "function"
    },
    {
      "inputs": [],
      "name": "allVaultsLength",
      "outputs": [
        {
          "internalType": "uint256",
          "name": "",
          "type": "uint256"
        }
      ],
      "stateMutability": "view",
      "type": "function"
    },
    {
      "inputs": [
        {
          "internalType": "address",
          "name": "employee",
          "type": "address"
        },
        {
          "internalType": "address",
          "name": "usdt",
          "type": "address"
        },
        {
          "internalType": "uint256",
          "name": "periodAmount",
          "type": "uint256"
        },
        {
          "internalType": "uint64[]",
          "name": "schedule",
          "type": "uint64[]"
        },
        {
          "internalType": "bytes32",
          "name": "payrollRef",
          "type": "bytes32"
        }
      ],
      "name": "createVault",
      "outputs": [
        {
          "internalType": "address",
          "name": "vault",
          "type": "address"
        }
      ],
      "stateMutability": "nonpayable",
      "type": "function"
    },
    {
      "inputs": [
        {
          "internalType": "address",
          "name": "employee",
          "type": "address"
        },
        {
          "internalType": "address",
          "name": "usdt",
          "type": "address"
        },
        {
          "internalType": "uint256",
          "name": "periodAmount",
          "type": "uint256"
        },
        {
          "internalType": "uint64[]",
          "name": "schedule",
          "type": "uint64[]"
        },
        {
          "internalType": "bytes32",
          "name": "payrollRef",
          "type": "bytes32"
        },
        {
          "internalType": "bytes32",
          "name": "salt",
          "type": "bytes32"
        }
      ],
      "name": "createVaultDeterministic",
      "outputs": [
        {
          "internalType": "address",
          "name": "vault",
          "type": "address"
        }
      ],
      "stateMutability": "nonpayable",
      "type": "function"
    },
    {
      "inputs": [
        {
          "internalType": "address",
          "name": "",
          "type": "address"
        }
      ],
      "name": "employerNonces",
      "outputs": [
        {
          "internalType": "uint256",
          "name": "",
          "type": "uint256"
        }
      ],
      "stateMutability": "view",
      "type": "function"
    },
    {
      "inputs": [
        {
          "internalType": "address",
          "name": "employer",
          "type": "address"
        }
      ],
      "name": "employerVaultCount",
      "outputs": [
        {
          "internalType": "uint256",
          "name": "",
          "type": "uint256"
        }
      ],
      "stateMutability": "view",
      "type": "function"
    },
    {
      "inputs": [
        {
          "internalType": "address",
          "name": "employer",
          "type": "address"
        }
      ],
      "name": "employerVaults",
      "outputs": [
        {
          "internalType": "address[]",
          "name": "",
          "type": "address[]"
        }
      ],
      "stateMutability": "view",
      "type": "function"
    },
    {
      "inputs": [],
      "name": "implementation",
      "outputs": [
        {
          "internalType": "address",
          "name": "",
          "type": "address"
        }
      ],
      "stateMutability": "view",
      "type": "function"
    },
    {
      "inputs": [],
      "name": "owner",
      "outputs": [
        {
          "internalType": "address",
          "name": "",
          "type": "address"
        }
      ],
      "stateMutability": "view",
      "type": "function"
    },
    {
      "inputs": [
        {
          "internalType": "bytes32",
          "name": "salt",
          "type": "bytes32"
        }
      ],
      "name": "predictDeterministicAddress",
      "outputs": [
        {
          "internalType": "address",
          "name": "",
          "type": "address"
        }
      ],
      "stateMutability": "view",
      "type": "function"
    },
    {
      "inputs": [],
      "name": "renounceOwnership",
      "outputs": [],
      "stateMutability": "nonpayable",
      "type": "function"
    },
    {
      "inputs": [
        {
          "internalType": "address",
          "name": "newOwner",
          "type": "address"
        }
      ],
      "name": "transferOwnership",
      "outputs": [],
      "stateMutability": "nonpayable",
      "type": "function"
    },
    {
      "inputs": [
        {
          "internalType": "address",
          "name": "",
          "type": "address"
        }
      ],
      "name": "vaultMeta",
      "outputs": [
        {
          "internalType": "address",
          "name": "employer",
          "type": "address"
        },
        {
          "internalType": "address",
          "name": "employee",
          "type": "address"
        },
        {
          "internalType": "address",
          "name": "usdt",
          "type": "address"
        },
        {
          "internalType": "uint256",
          "name": "periodAmount",
          "type": "uint256"
        },
        {
          "internalType": "uint32",
          "name": "totalPeriods",
          "type": "uint32"
        },
        {
          "internalType": "bytes32",
          "name": "scheduleHash",
          "type": "bytes32"
        },
        {
          "internalType": "bytes32",
          "name": "payrollRef",
          "type": "bytes32"
        }
      ],
      "stateMutability": "view",
      "type": "function"
    }
  ],
  "bytecode": "0x60a060405234801561001057600080fd5b50604051610f0d380380610f0d83398101604081905261002f916100e7565b338061005557604051631e4fbdf760e01b81526000600482015260240160405180910390fd5b61005e81610097565b506001600160a01b03811661008657604051630ecc6fdf60e41b815260040160405180910390fd5b6001600160a01b0316608052610117565b600080546001600160a01b038381166001600160a01b0319831681178455604051919092169283917f8be0079c531659141344cd1fd0a4f28419497f9722a3daafe3b4186f6b6457e09190a35050565b6000602082840312156100f957600080fd5b81516001600160a01b038116811461011057600080fd5b9392505050565b608051610dc66101476000396000818161020901528181610351015281816103c001526105810152610dc66000f3fe608060405234801561001057600080fd5b50600436106100cf5760003560e01c8063715018a61161008c5780639094a91e116100665780639094a91e14610266578063a2515a5a14610279578063f2fde38b14610299578063fb48b4d7146102ac57600080fd5b8063715018a61461022b5780638da5cb5b146102355780638e5142f51461024657600080fd5b80631b6fa7cc146100d45780632d7a5450146101105780632ebf75ae146101be5780634cd18577146101e95780635414dff0146101f15780635c60da1b14610204575b600080fd5b6100fd6100e2366004610acd565b6001600160a01b031660009081526002602052604090205490565b6040519081526020015b60405180910390f35b61017261011e366004610acd565b600360208190526000918252604090912080546001820154600283015493830154600484015460058501546006909501546001600160a01b0394851696938516959390941693919263ffffffff9091169187565b604080516001600160a01b03988916815296881660208801529490961693850193909352606084019190915263ffffffff16608083015260a082015260c081019190915260e001610107565b6101d16101cc366004610b34565b6102bf565b6040516001600160a01b039091168152602001610107565b6001546100fd565b6101d16101ff366004610bb2565b610397565b6101d17f000000000000000000000000000000000000000000000000000000000000000081565b610233610426565b005b6000546001600160a01b03166101d1565b6100fd610254366004610acd565b60046020526000908152604090205481565b6101d1610274366004610bb2565b61043a565b61028c610287366004610acd565b610464565b6040516101079190610bcb565b6102336102a7366004610acd565b6104da565b6101d16102ba366004610c18565b61051d565b60006001600160a01b03881615806102de57506001600160a01b038716155b156102fc57604051630ecc6fdf60e41b815260040160405180910390fd5b600084900361031e5760405163d652755960e01b815260040160405180910390fd5b33600090815260046020526040812080546001929061033e908490610c8f565b9091555061037790506001600160a01b037f000000000000000000000000000000000000000000000000000000000000000016836105cd565b905061038c81338a8a8a8a8a8a60018b6105e2565b979650505050505050565b6040513060388201526f5af43d82803e903d91602b57fd5bf3ff60248201526001600160a01b037f000000000000000000000000000000000000000000000000000000000000000081166014830152733d602d80600a3d3981f3363d3d373d3d3d363d738252605882018390526037600c83012060788301526055604390920191909120600091165b92915050565b61042e6108fa565b6104386000610927565b565b6001818154811061044a57600080fd5b6000918252602090912001546001600160a01b0316905081565b6001600160a01b0381166000908152600260209081526040918290208054835181840281018401909452808452606093928301828280156104ce57602002820191906000526020600020905b81546001600160a01b031681526001909101906020018083116104b0575b50505050509050919050565b6104e26108fa565b6001600160a01b03811661051157604051631e4fbdf760e01b8152600060048201526024015b60405180910390fd5b61051a81610927565b50565b60006001600160a01b038716158061053c57506001600160a01b038616155b1561055a57604051630ecc6fdf60e41b815260040160405180910390fd5b600083900361057c5760405163d652755960e01b815260040160405180910390fd5b6105ae7f00000000000000000000000000000000000000000000000000000000000000006001600160a01b0316610977565b90506105c381338989898989896000806105e2565b9695505050505050565b60006105db83836000610984565b9392505050565b6040516313b039e760e01b81526001600160a01b038b16906313b039e79061061a908c908c908c908c908c908c908c90600401610cc8565b600060405180830381600087803b15801561063457600080fd5b505af1925050508015610645575060015b61066257604051632d0859ed60e21b815260040160405180910390fd5b6001805480820182557fb10e2d527612073b26eecdfd717e6a320cf44b4afac2b0732d9fcbe2b7fa0cf60180546001600160a01b03808e166001600160a01b031992831681179093558c166000908152600260209081526040808320805496870181558352818320909501805490931690931790915591516106e8918891889101610d4f565b6040516020818303038152906040528051906020012090506040518060e001604052808b6001600160a01b031681526020018a6001600160a01b03168152602001896001600160a01b031681526020018881526020018787905063ffffffff16815260200182815260200185815250600360008d6001600160a01b03166001600160a01b0316815260200190815260200160002060008201518160000160006101000a8154816001600160a01b0302191690836001600160a01b0316021790555060208201518160010160006101000a8154816001600160a01b0302191690836001600160a01b0316021790555060408201518160020160006101000a8154816001600160a01b0302191690836001600160a01b031602179055506060820151816003015560808201518160040160006101000a81548163ffffffff021916908363ffffffff16021790555060a0820151816005015560c08201518160060155905050886001600160a01b03168a6001600160a01b03168c6001600160a01b03167f2810dc3015263c15e5b29e2b6b4224c3a3aadb63169761817e3aa6433f036ce78b8b8b8b9050878b8b8b6040516108e597969594939291906001600160a01b03979097168752602087019590955263ffffffff93909316604086015260608501919091526080840152151560a083015260c082015260e00190565b60405180910390a45050505050505050505050565b6000546001600160a01b031633146104385760405163118cdaa760e01b8152336004820152602401610508565b600080546001600160a01b038381166001600160a01b0319831681178455604051919092169283917f8be0079c531659141344cd1fd0a4f28419497f9722a3daafe3b4186f6b6457e09190a35050565b6000610420826000610a1b565b6000814710156109b05760405163cf47918160e01b815247600482015260248101839052604401610508565b763d602d80600a3d3981f3363d3d373d3d3d363d730000008460601b60e81c176000526e5af43d82803e903d91602b57fd5bf38460781b17602052826037600984f590506001600160a01b0381166105db5760405163b06ebf3d60e01b815260040160405180910390fd5b600081471015610a475760405163cf47918160e01b815247600482015260248101839052604401610508565b763d602d80600a3d3981f3363d3d373d3d3d363d730000008360601b60e81c176000526e5af43d82803e903d91602b57fd5bf38360781b176020526037600983f090506001600160a01b0381166104205760405163b06ebf3d60e01b815260040160405180910390fd5b80356001600160a01b0381168114610ac857600080fd5b919050565b600060208284031215610adf57600080fd5b6105db82610ab1565b60008083601f840112610afa57600080fd5b50813567ffffffffffffffff811115610b1257600080fd5b6020830191508360208260051b8501011115610b2d57600080fd5b9250929050565b600080600080600080600060c0888a031215610b4f57600080fd5b610b5888610ab1565b9650610b6660208901610ab1565b955060408801359450606088013567ffffffffffffffff811115610b8957600080fd5b610b958a828b01610ae8565b989b979a50959895979660808701359660a0013595509350505050565b600060208284031215610bc457600080fd5b5035919050565b6020808252825182820181905260009190848201906040850190845b81811015610c0c5783516001600160a01b031683529284019291840191600101610be7565b50909695505050505050565b60008060008060008060a08789031215610c3157600080fd5b610c3a87610ab1565b9550610c4860208801610ab1565b945060408701359350606087013567ffffffffffffffff811115610c6b57600080fd5b610c7789828a01610ae8565b979a9699509497949695608090950135949350505050565b8082018082111561042057634e487b7160e01b600052601160045260246000fd5b803567ffffffffffffffff81168114610ac857600080fd5b6001600160a01b03888116825287811660208084019190915290871660408301526060820186905260c0608083018190528201849052600090859060e0840190835b87811015610d375767ffffffffffffffff610d2485610cb0565b1683529281019291810191600101610d0a565b505060a0939093019390935250979650505050505050565b60008184825b85811015610d855767ffffffffffffffff610d6f83610cb0565b1683526020928301929190910190600101610d55565b50909594505050505056fea264697066735822122081756b84848b3d77a720abd40ab04035d20469acce7d4d2c65fd5aa7ccf863d664736f6c63430008140033",
  "linkReferences": {},
  "deployedLinkReferences": {}
}